{
  "contractName": "TodoContract",
  "abi": [
    {
      "anonymous": false,
      "inputs": [
        {
          "indexed": false,
          "internalType": "string",
          "name": "task",
          "type": "string"
        },
        {
          "indexed": false,
          "internalType": "uint256",
          "name": "taskNumber",
          "type": "uint256"
        }
      ],
      "name": "TaskCreated",
      "type": "event"
    },
    {
      "anonymous": false,
      "inputs": [
        {
          "indexed": false,
          "internalType": "uint256",
          "name": "taskNumber",
          "type": "uint256"
        }
      ],
      "name": "TaskDeleted",
      "type": "event"
    },
    {
      "anonymous": false,
      "inputs": [
        {
          "indexed": false,
          "internalType": "string",
          "name": "task",
          "type": "string"
        },
        {
          "indexed": false,
          "internalType": "uint256",
          "name": "taskId",
          "type": "uint256"
        },
        {
          "indexed": false,
          "internalType": "bool",
          "name": "isComplete",
          "type": "bool"
        }
      ],
      "name": "TaskIsCompleteToggled",
      "type": "event"
    },
    {
      "anonymous": false,
      "inputs": [
        {
          "indexed": false,
          "internalType": "string",
          "name": "task",
          "type": "string"
        },
        {
          "indexed": false,
          "internalType": "uint256",
          "name": "taskId",
          "type": "uint256"
        }
      ],
      "name": "TaskUpdated",
      "type": "event"
    },
    {
      "inputs": [],
      "name": "taskCount",
      "outputs": [
        {
          "internalType": "uint256",
          "name": "",
          "type": "uint256"
        }
      ],
      "stateMutability": "view",
      "type": "function"
    },
    {
      "inputs": [
        {
          "internalType": "uint256",
          "name": "",
          "type": "uint256"
        }
      ],
      "name": "todos",
      "outputs": [
        {
          "internalType": "uint256",
          "name": "index",
          "type": "uint256"
        },
        {
          "internalType": "string",
          "name": "taskName",
          "type": "string"
        },
        {
          "internalType": "bool",
          "name": "isComplete",
          "type": "bool"
        }
      ],
      "stateMutability": "view",
      "type": "function"
    },
    {
      "inputs": [
        {
          "internalType": "string",
          "name": "_taskName",
          "type": "string"
        }
      ],
      "name": "createTask",
      "outputs": [],
      "stateMutability": "nonpayable",
      "type": "function"
    },
    {
      "inputs": [
        {
          "internalType": "uint256",
          "name": "_taskId",
          "type": "uint256"
        },
        {
          "internalType": "string",
          "name": "_taskName",
          "type": "string"
        }
      ],
      "name": "updateTask",
      "outputs": [],
      "stateMutability": "nonpayable",
      "type": "function"
    },
    {
      "inputs": [
        {
          "internalType": "uint256",
          "name": "_taskId",
          "type": "uint256"
        }
      ],
      "name": "toggleComplete",
      "outputs": [],
      "stateMutability": "nonpayable",
      "type": "function"
    },
    {
      "inputs": [
        {
          "internalType": "uint256",
          "name": "_taskId",
          "type": "uint256"
        }
      ],
      "name": "deleteTask",
      "outputs": [],
      "stateMutability": "nonpayable",
      "type": "function"
    }
  ],
  "bytecode": "0x60806040526000805534801561001457600080fd5b50610c51806100246000396000f3fe608060405234801561001057600080fd5b50600436106100625760003560e01c80630951e5bd14610067578063111002aa14610083578063560f31921461009f57806386533f6c146100bb578063b6cb58a5146100d7578063bc8bc2b4146100f5575b600080fd5b610081600480360381019061007c9190610821565b610127565b005b61009d600480360381019061009891906107e0565b6102cb565b005b6100b960048036038101906100b49190610821565b6103aa565b005b6100d560048036038101906100d0919061084a565b610426565b005b6100df6105bb565b6040516100ec9190610963565b60405180910390f35b61010f600480360381019061010a9190610821565b6105c1565b60405161011e9392919061097e565b60405180910390f35b6000600160008381526020019081526020016000206040518060600160405290816000820154815260200160018201805461016190610aba565b80601f016020809104026020016040519081016040528092919081815260200182805461018d90610aba565b80156101da5780601f106101af576101008083540402835291602001916101da565b820191906000526020600020905b8154815290600101906020018083116101bd57829003601f168201915b505050505081526020016002820160009054906101000a900460ff161515151581525050905060405180606001604052808381526020018260200151815260200182604001511515158152506001600084815260200190815260200160002060008201518160000155602082015181600101908051906020019061025f929190610680565b5060408201518160020160006101000a81548160ff0219169083151502179055509050507f21d25b1182ece704b24eedd00ef3879b75f4bd2e9a3137cfde0c6405b28ce78c8160200151838360400151156040516102bf93929190610925565b60405180910390a15050565b60405180606001604052806000548152602001828152602001600015158152506001600080548152602001908152602001600020600082015181600001556020820151816001019080519060200190610325929190610680565b5060408201518160020160006101000a81548160ff02191690831515021790555090505060008081548092919061035b90610b1d565b91905055507fed1d390c812a65783a09786b88b832ef75bb16882fbc56eeea9bf61a4c1a8ac78160016000546103919190610a2e565b60405161039f9291906108f5565b60405180910390a150565b600160008281526020019081526020016000206000808201600090556001820160006103d69190610706565b6002820160006101000a81549060ff021916905550507fd078b251d950cc55c44340be1db732337ef4939a76e1367ee271ad2cb19c46af8160405161041b9190610963565b60405180910390a150565b6000600160008481526020019081526020016000206040518060600160405290816000820154815260200160018201805461046090610aba565b80601f016020809104026020016040519081016040528092919081815260200182805461048c90610aba565b80156104d95780601f106104ae576101008083540402835291602001916104d9565b820191906000526020600020905b8154815290600101906020018083116104bc57829003601f168201915b505050505081526020016002820160009054906101000a900460ff161515151581525050905060405180606001604052808481526020018381526020018260400151151581525060016000858152602001908152602001600020600082015181600001556020820151816001019080519060200190610559929190610680565b5060408201518160020160006101000a81548160ff0219169083151502179055509050507fa19b2211615873e8fbe860460ba43e467bf8f2d28d98b023144fc0739af842cd82846040516105ae9291906108f5565b60405180910390a1505050565b60005481565b60016020528060005260406000206000915090508060000154908060010180546105ea90610aba565b80601f016020809104026020016040519081016040528092919081815260200182805461061690610aba565b80156106635780601f1061063857610100808354040283529160200191610663565b820191906000526020600020905b81548152906001019060200180831161064657829003601f168201915b5050505050908060020160009054906101000a900460ff16905083565b82805461068c90610aba565b90600052602060002090601f0160209004810192826106ae57600085556106f5565b82601f106106c757805160ff19168380011785556106f5565b828001600101855582156106f5579182015b828111156106f45782518255916020019190600101906106d9565b5b5090506107029190610746565b5090565b50805461071290610aba565b6000825580601f106107245750610743565b601f0160209004906000526020600020908101906107429190610746565b5b50565b5b8082111561075f576000816000905550600101610747565b5090565b6000610776610771846109e1565b6109bc565b90508281526020810184848401111561078e57600080fd5b610799848285610a78565b509392505050565b600082601f8301126107b257600080fd5b81356107c2848260208601610763565b91505092915050565b6000813590506107da81610c04565b92915050565b6000602082840312156107f257600080fd5b600082013567ffffffffffffffff81111561080c57600080fd5b610818848285016107a1565b91505092915050565b60006020828403121561083357600080fd5b6000610841848285016107cb565b91505092915050565b6000806040838503121561085d57600080fd5b600061086b858286016107cb565b925050602083013567ffffffffffffffff81111561088857600080fd5b610894858286016107a1565b9150509250929050565b6108a781610a62565b82525050565b60006108b882610a12565b6108c28185610a1d565b93506108d2818560208601610a87565b6108db81610bf3565b840191505092915050565b6108ef81610a6e565b82525050565b6000604082019050818103600083015261090f81856108ad565b905061091e60208301846108e6565b9392505050565b6000606082019050818103600083015261093f81866108ad565b905061094e60208301856108e6565b61095b604083018461089e565b949350505050565b600060208201905061097860008301846108e6565b92915050565b600060608201905061099360008301866108e6565b81810360208301526109a581856108ad565b90506109b4604083018461089e565b949350505050565b60006109c66109d7565b90506109d28282610aec565b919050565b6000604051905090565b600067ffffffffffffffff8211156109fc576109fb610bc4565b5b610a0582610bf3565b9050602081019050919050565b600081519050919050565b600082825260208201905092915050565b6000610a3982610a6e565b9150610a4483610a6e565b925082821015610a5757610a56610b66565b5b828203905092915050565b60008115159050919050565b6000819050919050565b82818337600083830152505050565b60005b83811015610aa5578082015181840152602081019050610a8a565b83811115610ab4576000848401525b50505050565b60006002820490506001821680610ad257607f821691505b60208210811415610ae657610ae5610b95565b5b50919050565b610af582610bf3565b810181811067ffffffffffffffff82111715610b1457610b13610bc4565b5b80604052505050565b6000610b2882610a6e565b91507fffffffffffffffffffffffffffffffffffffffffffffffffffffffffffffffff821415610b5b57610b5a610b66565b5b600182019050919050565b7f4e487b7100000000000000000000000000000000000000000000000000000000600052601160045260246000fd5b7f4e487b7100000000000000000000000000000000000000000000000000000000600052602260045260246000fd5b7f4e487b7100000000000000000000000000000000000000000000000000000000600052604160045260246000fd5b6000601f19601f8301169050919050565b610c0d81610a6e565b8114610c1857600080fd5b5056fea2646970667358221220536fd1c5be9bec1e09f9c2e0128ad4cae1d8b8a3157236a97bfed76d8c42e16f64736f6c63430008040033",
  "immutableReferences": {},
  "source": "//SPDX-License-Identifier: MIT\npragma solidity ^0.8.4;\n\ncontract TodoContract {\n  // counter for task id\n  uint256 public taskCount = 0;\n  // struct for task\n  struct Task {\n      uint256 index;\n      string taskName;\n      bool isComplete;\n  }\n  // map for id & Task\n  mapping(uint256 => Task) public todos;\n  \n  // event\n  event TaskCreated(string task, uint256 taskNumber);\n  event TaskUpdated(string task, uint256 taskId);\n  event TaskIsCompleteToggled(string task, uint256 taskId, bool isComplete);\n  event TaskDeleted(uint256 taskNumber);\n\n  /**\n   * create task func\n   */\n  function createTask(string memory _taskName) public {\n    // create new task\n    todos[taskCount] = Task(taskCount, _taskName, false);\n    taskCount++;\n\n    emit TaskCreated(_taskName, taskCount - 1);\n  }\n\n  /**\n   * Update task func  \n   */\n  function updateTask(uint256 _taskId, string memory _taskName) public {\n    // get task data\n    Task memory currTask = todos[_taskId];\n    // update!!\n    todos[_taskId] = Task(_taskId, _taskName, currTask.isComplete);\n\n    emit TaskUpdated(_taskName, _taskId);\n  }\n\n  /**\n   * change task state func\n   */\n  function toggleComplete(uint256 _taskId) public {\n    // get task data\n    Task memory currTask = todos[_taskId];\n    // update task state\n    todos[_taskId] = Task(_taskId, currTask.taskName, !currTask.isComplete);\n\n    emit TaskIsCompleteToggled(currTask.taskName, _taskId, !currTask.isComplete);\n  }\n\n  /**\n   * delete task func\n   */  \n  function deleteTask(uint256 _taskId) public {\n    // delete task\n    delete todos[_taskId];\n    emit TaskDeleted(_taskId);\n  }\n}\n",
  "sourcePath": "/Users/harukikondo/git/PolygonMoblieDApp/backend/contracts/TodoContract.sol",
  "compiler": {
    "name": "solc",
    "version": "0.8.4+commit.c7e474f2.Emscripten.clang"
  },
  "schemaVersion": "3.2.0",
  "updatedAt": "2022-06-11T05:50:10.226Z",
  "devdoc": {
    "kind": "dev",
    "methods": {},
    "version": 1
  },
  "userdoc": {
    "kind": "user",
    "methods": {
      "createTask(string)": {
        "notice": "create task func"
      },
      "deleteTask(uint256)": {
        "notice": "delete task func"
      },
      "toggleComplete(uint256)": {
        "notice": "change task state func"
      },
      "updateTask(uint256,string)": {
        "notice": "Update task func  "
      }
    },
    "version": 1
  }
}